:020000000C945E
:1000020051000C9400000C9400000C9400000C941D
:1000120000000C9400000C9400000C9400000C945E
:1000220000000C9400000C9400000C9400000C944E
:1000320000000C94C3000C9400000C9400000C947B
:1000420000000C9400000C9400000C9400000C942E
:100052008B000C9400000C94AB000C9400000C94E8
:1000620000000C9400000C9400000C9400000C940E
:1000720000000C9400000C9400001027E8036400B8
:100082000A000100001000011000010001002D4EC5
:10009200414E00494E460000010010028E00000051
:1000A200F894EE27EFBBF1E0F5BFE5BFF8E1A895C4
:1000B200A4B7A77FA4BFF0936000E09360008DE037
:1000C200A2E0BB27ED938A95E9F780E094E0A0E0F7
:1000D200B1E0ED930197E9F7EAE9F0E085919591B6
:1000E200009761F0A591B59105901590BF01F001BF
:1000F20005900D920197E1F7FB01F0CFE0E0EEBB36
:10010200EABDEBBDEFEFEDBFE4E0EEBFC0E0D2E051
:100112000C94E200EA93FA93EFB7EA931A930A93E4
:100122001091C0000091C600E12FEC7181F4E32D23
:100132003394F0E0E050FE4F0083E8E0E31509F469
:1001420033245394E8E0E51511F45524F09A09910B
:10015200199113C0EA93FA93EFB7EA93662069F014
:100162006A94E72D7394F0E0E85FFD4FE081E0933D
:10017200C600E8E0E71509F47724E991EFBFF991A9
:10018200E99118955E9B02C05E9801C05E9A18952F
:10019200E881E066E0937C0083E48A95F1F7E091E0
:1001A2007A00E064E0937A00E0917A00E071E1F392
:1001B200E0917A00E061E0937A00E0917900219683
:1001C200089541E050E0E7D078945E9A2F9AFA01C0
:1001D200E130A0E0FA0711F00C945D01E0E0EA934F
:1001E200D7DF2E2F33270E9444022536E0E03E0758
:1001F20024F02E36E0E03E070CF008C0479A409803
:100202004198429844984398459801C047982E36A1
:10021200E0E03E0724F02D37E0E03E070CF006C098
:10022200429A409841984398449845982635E0E090
:100232003E0724F02536E0E03E070CF006C0439A64
:10024200409841984298449845982D37E0E03E07FF
:1002520024F02C38E0E03E070CF006C0419A4098AA
:1002620042984398449845982734E0E03E0724F0AA
:100272002635E0E03E070CF006C0449A40984198CB
:100282004298439845982C38E0E03E0734F0409A73
:10029200419842984398449845982734E0E03E07B5
:1002A20034F4459A409841984298439844980E9461
:1002B2004A0242E050E06DC0E230A0E0FA0711F0DD
:1002C2000C94CA01E1E0EA9363DF0E2F11270E942A
:1002D20044020B35E0E01E0724F00436E0E01E077E
:1002E2000CF006C0479A0E9450022C982D9801C02B
:1002F20047980436E0E01E0724F00337E0E01E07CB
:100302000CF006C02A9A289829982B982C982D9898
:100312000C34E0E01E0724F00B35E0E01E070CF081
:1003220006C02B9A289829982A982C982D9803373A
:10033200E0E01E0724F00238E0E01E070CF006C0E1
:10034200299A28982A982B982C982D980D33E0E01A
:100352001E0724F00C34E0E01E070CF004C02C9AB7
:100362000E9450022D980238E0E01E0734F0289ACD
:1003720029982A982B982C982D980D33E0E01E0787
:1003820024F42D9A0E9450022C980E944A0241E0C5
:1003920050E01DCFFFCFE0E8E0936100E0E0E093A2
:1003A2006100E2B9E1B9EFEFE5B9E4B9E8B9E7B95B
:1003B200E0E2EBB9E0E5EAB9E0E0E4BDE5BDE6BDC7
:1003C200E7BDE8BDE0938000EDE0E0938100E0E06E
:1003D200E0938500E0938400E0938700E093860039
:1003E200ECE4E0938900E0E4E0938800E0E0E0934D
:1003F2008B00E0938A00E093B600E093B000E093B4
:10040200B100E093B200E093B300E093B400E09354
:100412006900EDBBE0936800E0936E00E2E0E093D8
:100422006F00E0E0E0937000E093C000E8EDE0933D
:10043200C100E6E0E093C200E0E0E093C500E1E83D
:10044200E093C400E0E0E093C900E0E8E0BFE0E050
:10045200E0937B00E0937F00E0937E00E0E6E09390
:100462007C00E7EAE0937A00E0917B00E87FE0938A
:100472007B00E0E0ECBDA895E8E1E0936000E8E0F5
:10048200E09360000895EAE0F0E0FA93EA930C94B6
:100492005502E8ECF0E0FA93EA930C94550228989E
:1004A20029982A982B980895E991F991309639F074
:1004B20088E893E10197F1F7A8953197C9F7089574
:00000001FF
